:100000000C942A000C943F000C943F000C943F0089
:100010000C943F000C943F000C943F000C943F0064
:100020000C943F000C943F000C943F000C943F0054
:100030000C943F000C943F000C943F000C943F0044
:100040000C943F000C943F000C943F000C943F0034
:100050000C943F0011241FBECFE5D8E0DEBFCDBF1A
:1000600011E0A0E6B0E0E0EFF1E302C005900D92F0
:10007000A43BB107D9F70E947B160C94F6180C9498
:100080000000EF92FF920F931F937B018C0120E001
:1000900030E040E05FE40E94410388238CF0C80117
:1000A000B70120E030E040E05FE40E94B9010E9427
:1000B000A1039B01AC01205030404040504806C095
:1000C000C801B7010E94A1039B01AC01B901CA019B
:1000D0001F910F91FF90EF900895A0E0B0E0E3E74B
:1000E000F0E00C947B18DC012B01FA019C9192301A
:1000F00008F439C1EB018881823008F433C19430AF
:1001000069F4843009F02FC111969C91119789816F
:10011000981709F428C1ABE9B0E025C1843009F48F
:1001200021C18230A9F4923009F01DC19A01AD01BC
:1001300088E0EA010990AE01E90109929E0181502F
:10014000C1F7E201898111969C918923818308C1BD
:10015000923009F407C112962D903C901397EB0151
:100160008A819B811496AD90BD90CD90DC901797BD
:10017000EC80FD800E811F819101281B390BB90194
:1001800037FF04C066277727621B730B6032710547
:100190000CF061C0121613066CF537014801062EEB
:1001A00004C096948794779467940A94D2F721E0D8
:1001B00030E040E050E004C0220F331F441F551FC1
:1001C0006A95D2F721503040404050402E213F21C7
:1001D00040235123211531054105510521F021E02E
:1001E00030E040E050E079018A01E628F72808294C
:1001F00019293CC0232BD1F1260E371E35014601AB
:10020000062E04C096948794779467940A94D2F744
:1002100021E030E040E050E004C0220F331F441FD3
:10022000551F6A95D2F721503040404050402A2156
:100230003B214C215D21211531054105510521F05E
:1002400021E030E040E050E059016A01A628B728DB
:10025000C828D9280BC0821593052CF01C01AA24AC
:10026000BB24650103C0EE24FF24870111969C91F5
:10027000D20111968C91981709F445C0992339F051
:10028000A80197012A193B094C095D0906C0A6017E
:1002900095012E193F09400B510B57FD08C01182E3
:1002A0003382228224833583468357831DC081E0B5
:1002B00081833382228288279927DC01821B930B5A
:1002C000A40BB50B84839583A683B7830DC0220F3F
:1002D000331F441F551F24833583468357838281F0
:1002E000938101979383828324813581468157814D
:1002F000DA01C9010197A109B1098F5F9F4FAF4F83
:10030000BF4328F30BC0918333822282EA0CFB1C8B
:100310000C1D1D1DE482F5820683178383E0808314
:10032000248135814681578157FF1AC0C901AA2708
:1003300097FDA095BA2F81709070A070B0705695FF
:10034000479537952795822B932BA42BB52B848328
:100350009583A683B7838281938101969383828359
:10036000DF0101C0D201CD01CDB7DEB7E2E10C94CF
:100370009718A0E2B0E0EFEBF1E00C9487186983E6
:100380007A838B839C832D833E834F835887E9E058
:10039000EE2EF12CEC0EFD1ECE010196B7010E944F
:1003A00092058E010F5E1F4FCE010596B8010E9487
:1003B00092058A8991E089278A8BC701B801AE012D
:1003C000475E5F4F0E946D000E94BD04A096E6E06C
:1003D0000C94A318A0E2B0E0E0EFF1E00C948718D1
:1003E00069837A838B839C832D833E834F835887D5
:1003F000F9E0EF2EF12CEC0EFD1ECE010196B701B7
:100400000E9492058E010F5E1F4FCE010596B80126
:100410000E949205C701B801AE01475E5F4F0E947E
:100420006D000E94BD04A096E6E00C94A318A0E223
:10043000B0E0EDE1F2E00C947B1869837A838B8362
:100440009C832D833E834F835887CE010196BE0146
:10045000675F7F4F0E949205CE010596BE016F5ED9
:100460007F4F0E9492059985923088F08989823069
:10047000C8F0943019F4823051F404C0843029F467
:10048000923081F48BE990E0C6C0923049F420E0CC
:100490009A858A89981321E02A87CE010996BBC0E4
:1004A000823049F420E09A858A89981321E02A8BCA
:1004B000CE014196B0C02D843E844F8458886D880B
:1004C0007E888F88988CEE24FF248701AA24BB2481
:1004D000650140E050E060E070E0E0E0F0E0C10184
:1004E00081709070892BE9F0E60CF71C081D191D2E
:1004F0009A01AB012A0D3B1D4C1D5D1D80E090E073
:10050000A0E0B0E0E614F7040805190520F481E046
:1005100090E0A0E0B0E0BA01A901480F591F6A1F9E
:100520007B1FAA0CBB1CCC1CDD1C97FE08C081E005
:1005300090E0A0E0B0E0A82AB92ACA2ADB2A3196C6
:10054000E032F10549F0660C771C881C991C569422
:10055000479437942794C3CFFA85EA892B893C893D
:100560008B859C85280F391F2E5F3F4F17C0CA010E
:1005700081709070892B61F016950795F794E79438
:1005800080E090E0A0E0B0E8E82AF92A0A2B1B2BD3
:1005900076956795579547952F5F3F4F77FDE7CF46
:1005A0000CC0440F551F661F771F17FD4160EE0CEE
:1005B000FF1C001F111F21503040403090E05907B0
:1005C00090E0690790E4790760F32B8F3C8FDB01A3
:1005D000CA018F779070A070B07080349105A1052A
:1005E000B10561F447FD0AC0E114F10401051105EC
:1005F00029F0405C5F4F6F4F7F4F40781A8EFE1797
:1006000011F081E08A8F4D8F5E8F6F8F78A383E02A
:10061000898FCE0149960E94BD04A096E2E10C9418
:100620009718A8E1B0E0E7E1F3E00C94871869833C
:100630007A838B839C832D833E834F83588789E005
:10064000E82EF12CEC0EFD1ECE010196B7010E94A2
:1006500092058E010F5E1F4FCE010596B8010E94D4
:1006600092058985823040F08989823028F0C7015F
:10067000B8010E940A0601C08FEF6896E6E00C946C
:10068000A318A8E1B0E0E7E4F3E00C9487186983CD
:100690007A838B839C832D833E834F83588789E0A5
:1006A000E82EF12CEC0EFD1ECE010196B7010E9442
:1006B00092058E010F5E1F4FCE010596B8010E9474
:1006C00092058985823040F08989823028F0C701FF
:1006D000B8010E940A0601C08FEF6896E6E00C940C
:1006E000A318A8E1B0E0E7E7F3E00C94871869836A
:1006F0007A838B839C832D833E834F83588789E045
:10070000E82EF12CEC0EFD1ECE010196B7010E94E1
:1007100092058E010F5E1F4FCE010596B8010E9413
:1007200092058985823040F08989823028F0C7019E
:10073000B8010E940A0601C081E06896E6E00C94C8
:10074000A318ACE0B0E0E7EAF3E00C948B186983FF
:100750007A838B839C83CE010196BE016B5F7F4FB2
:100760000E9492058D81823061F1823050F1843097
:1007700021F48E81882351F12EC02F81388537FDD9
:1007800020C06E812F3131051CF06623F9F023C0A3
:100790008EE190E0821B930B29853A854B855C8521
:1007A00004C056954795379527958A95D2F76623C5
:1007B000B1F050954095309521953F4F4F4F5F4F89
:1007C0000EC020E030E040E050E009C02FEF3FEFE6
:1007D0004FEF5FE704C020E030E040E050E8B901AF
:1007E000CA012C96E2E00C94A718A8E0B0E0EBEF69
:1007F000F3E00C9483187B018C0161157105810570
:10080000910519F482E0898360C083E089838EE1D9
:10081000C82ED12CDC82CB82ED82FE820F8318871A
:10082000C801B7010E946E04FC013197F7FF3BC07D
:10083000222733272E1B3F0B57016801022E04C0CD
:10084000D694C794B794A7940A94D2F740E050E0A6
:1008500060E070E081E090E0A0E0B0E004C0880FCC
:10086000991FAA1FBB1F2A95D2F70197A109B109A9
:100870008E219F21A023B1230097A105B10521F06E
:1008800041E050E060E070E04A295B296C297D2955
:100890004D835E836F8378878EE190E08E1B9F0B84
:1008A0009C838B8312C0309781F00E2E04C0EE0C17
:1008B000FF1C001F111F0A94D2F7ED82FE820F83E6
:1008C0001887CE1ADF0ADC82CB821A82CE0101960B
:1008D0000E94BD042896EAE00C949F18EF92FF92C4
:1008E0000F931F937B018C0180E0E81680E0F806EF
:1008F00081E0080780E0180788F48FEFE816F1041C
:100900000105110531F028F088E090E0A0E0B0E0AA
:1009100017C080E090E0A0E0B0E012C080E0E816F0
:1009200080E0F80680E0080781E0180728F088E1F9
:1009300090E0A0E0B0E004C080E190E0A0E0B0E092
:1009400020E230E040E050E0281B390B4A0B5B0B03
:1009500004C016950795F794E7948A95D2F7F701A6
:10096000ED55FF4F8081281B310941095109C9010B
:100970001F910F91FF90EF900895DF92EF92FF92F9
:100980000F931F93FC01E480F58006811781D180CD
:100990008081823048F480E090E0A0E1B0E0E82A75
:1009A000F92A0A2B1B2BA5C0843009F49FC0823082
:1009B00021F4EE24FF24870105C0E114F1040105B0
:1009C000110519F4E0E0F0E096C0628173819FEFB9
:1009D000623879070CF05BC022E83FEF261B370B2B
:1009E0002A3131052CF020E030E040E050E02AC010
:1009F000B801A701022E04C07695679557954795D3
:100A00000A94D2F781E090E0A0E0B0E004C0880F43
:100A1000991FAA1FBB1F2A95D2F70197A109B109F7
:100A20008E219F21A023B1230097A105B10521F0BC
:100A300081E090E0A0E0B0E09A01AB01282B392BD7
:100A40004A2B5B2BDA01C9018F779070A070B070D0
:100A500080349105A105B10539F427FF09C0205C58
:100A60003F4F4F4F5F4F04C0215C3F4F4F4F5F4F91
:100A7000E0E0F0E02030A0E03A07A0E04A07A0E480
:100A80005A0710F0E1E0F0E079018A0127C06038F0
:100A9000710564F5FB01E158FF4FD801C7018F775D
:100AA0009070A070B07080349105A105B10539F443
:100AB000E7FE0DC080E490E0A0E0B0E004C08FE36A
:100AC00090E0A0E0B0E0E80EF91E0A1F1B1F17FF20
:100AD00005C016950795F794E794319687E016952B
:100AE0000795F794E7948A95D1F705C0EE24FF2483
:100AF0008701EFEFF0E06E2F679566276795902FDF
:100B00009F77D794DD24D7948E2F8695492F462B37
:100B1000582F5D29B701CA011F910F91FF90EF90E7
:100B2000DF900895FC01DB01408151812281622F19
:100B30006F7770E0221F2227221F9381892F880F51
:100B4000822B282F30E0991F9927991F11969C938B
:100B5000119721153105A9F541155105610571055B
:100B600011F482E037C082E89FEF13969C938E9336
:100B700012979A01AB0167E0220F331F441F551FE4
:100B80006A95D1F783E08C930DC0220F331F441F69
:100B9000551F12968D919C911397019713969C93D4
:100BA0008E931297203080E0380780E0480780E479
:100BB000580758F314962D933D934D935C931797D4
:100BC00008952F3F310579F44115510561057105EF
:100BD00019F484E08C93089564FF03C081E08C9342
:100BE00012C01C9210C02F57304013963C932E9386
:100BF000129783E08C9387E0440F551F661F771F81
:100C00008A95D1F7706414964D935D936D937C93A0
:100C1000179708951F93DC01FB019C91923008F413
:100C200047C08081823008F443C0943051F411965B
:100C30001C91843099F58181682F70E0611B7109E6
:100C40003FC0843021F0923031F48230B9F181819B
:100C5000882389F12DC011961C9111978230F1F0F3
:100C600081811817D9F412962D913C9113978281A6
:100C700093818217930794F028173907BCF01496D4
:100C80008D919D910D90BC91A02D2481358146813F
:100C90005781281739074A075B0718F4112341F0D9
:100CA0000AC082179307A407B50740F4112319F06F
:100CB00061E070E005C06FEF7FEF02C060E070E0C0
:100CC000CB011F910895DF93CF9300D000D00F92F6
:100CD000CDB7DEB789836A834B838981282F30E0C3
:100CE0003D832C836C817D8162307105D1F18C81D3
:100CF0009D818330910534F42C813D812130310573
:100D000071F094C06C817D816330710509F44BC032
:100D10008C819D818430910509F467C087C0AAE366
:100D2000B0E0EAE3F0E08081482F8A81282F30E0AC
:100D300081E090E002C0880F991F2A95E2F7809524
:100D400048238B81282F30E08A81882F90E0B901D9
:100D500002C0660F771F8A95E2F7CB01842B8C9334
:100D600065C0A7E3B0E0E7E3F0E08081482F8A8127
:100D7000282F30E081E090E002C0880F991F2A956B
:100D8000E2F7809548238B81282F30E08A81882FD5
:100D900090E0B90102C0660F771F8A95E2F7CB0198
:100DA000842B8C9343C0A4E3B0E0E4E3F0E08081C3
:100DB000482F8A81282F30E081E090E002C0880F20
:100DC000991F2A95E2F7809548238B81282F30E0E0
:100DD0008A81882F90E0B90102C0660F771F8A953B
:100DE000E2F7CB01842B8C9321C0A1E3B0E0E1E3D7
:100DF000F0E08081482F8A81282F30E081E090E068
:100E000002C0880F991F2A95E2F7809548238B81AD
:100E1000282F30E08A81882F90E0B90102C0660F48
:100E2000771F8A95E2F7CB01842B8C930F900F905C
:100E30000F900F900F90CF91DF910895DF93CF9394
:100E400000D000D0CDB7DEB789836A838981282F8F
:100E500030E03C832B838B819C818230910551F162
:100E60002B813C812330310534F48B819C8181308E
:100E7000910561F05AC02B813C812330310571F11D
:100E80008B819C8184309105E9F14FC0ABE3B0E0E8
:100E9000EBE3F0E08081482F8A81282F30E081E069
:100EA00090E0022E02C0880F991F0A94E2F7842B6B
:100EB0008C933BC0A8E3B0E0E8E3F0E08081482FEA
:100EC0008A81282F30E081E090E0022E02C0880F56
:100ED000991F0A94E2F7842B8C9327C0A5E3B0E016
:100EE000E5E3F0E08081482F8A81282F30E081E01F
:100EF00090E0022E02C0880F991F0A94E2F7842B1B
:100F00008C9313C0A2E3B0E0E2E3F0E08081482FCD
:100F10008A81282F30E081E090E0022E02C0880F05
:100F2000991F0A94E2F7842B8C930F900F900F90E7
:100F30000F90CF91DF910895DF93CF9300D000D031
:100F40000F92CDB7DEB78A836B838A81282F30E07A
:100F50003D832C834C815D8142305105B1F18C8100
:100F60009D818330910534F42C813D812130310500
:100F700071F084C04C815D814330510509F443C058
:100F80008C819D818430910509F45BC077C0E9E3D1
:100F9000F0E08081482F50E08B81282F30E081E005
:100FA00090E002C0880F991F2A95E2F79A01282342
:100FB00039238B81882F90E0A90102C05595479570
:100FC0008A95E2F7CA01898359C0E6E3F0E080819F
:100FD000482F50E08B81282F30E081E090E002C064
:100FE000880F991F2A95E2F79A01282339238B81CC
:100FF000882F90E0A90102C0559547958A95E2F7A0
:10100000CA0189833BC0E3E3F0E08081482F50E0D0
:101010008B81282F30E081E090E002C0880F991F7B
:101020002A95E2F79A01282339238B81882F90E0B3
:10103000A90102C0559547958A95E2F7CA018983AF
:101040001DC0E0E3F0E08081482F50E08B81282F25
:1010500030E081E090E002C0880F991F2A95E2F706
:101060009A01282339238B81882F90E0A90102C09F
:10107000559547958A95E2F7CA01898389810F9032
:101080000F900F900F900F90CF91DF910895DF9305
:10109000CF9300D000D0CDB7DEB789836A83898132
:1010A000282F30E03C832B838B819C8182309105FB
:1010B000D9F02B813C812330310534F48B819C8124
:1010C0008130910561F01EC02B813C8123303105B8
:1010D00081F08B819C818430910581F013C0EBE31A
:1010E000F0E08A8180830EC0E8E3F0E08A818083AB
:1010F00009C0E5E3F0E08A81808304C0E2E3F0E028
:101100008A8180830F900F900F900F90CF91DF9185
:101110000895DF93CF9300D000D0CDB7DEB7898399
:101120006A838981282F30E03C832B838B819C81CB
:1011300082309105D9F02B813C812330310534F484
:101140008B819C818130910561F01EC02B813C8197
:101150002330310581F08B819C818430910581F0B1
:1011600013C0EAE3F0E08A8180830EC0E7E3F0E099
:101170008A81808309C0E4E3F0E08A81808304C02F
:10118000E1E3F0E08A8180830F900F900F900F9041
:10119000CF91DF910895DF93CF9300D000D0CDB7EA
:1011A000DEB78A838A81282F30E03C832B838B81B2
:1011B0009C8182309105D9F02B813C81233031050F
:1011C00034F48B819C818130910561F01EC02B81AC
:1011D0003C812330310581F08B819C8184309105E5
:1011E00081F013C0E9E3F0E0808189830EC0E6E37B
:1011F000F0E08081898309C0E3E3F0E080818983A6
:1012000004C0E0E3F0E08081898389810F900F9032
:101210000F900F90CF91DF910895DF93CF9300D07F
:1012200000D0CDB7DEB789836A838981282F30E06B
:101230003C832B838B819C818230910561F12B81D2
:101240003C812330310534F48B819C8181309105C0
:1012500069F05FC02B813C812330310589F18B819E
:101260009C818430910509F440C053C0ABE3B0E0E9
:10127000EBE3F0E08081482F8A81282F30E081E085
:1012800090E0022E02C0880F991F0A94E2F7809521
:1012900084238C933EC0A8E3B0E0E8E3F0E08081D3
:1012A000482F8A81282F30E081E090E0022E02C092
:1012B000880F991F0A94E2F7809584238C9329C0A4
:1012C000A5E3B0E0E5E3F0E08081482F8A81282F94
:1012D00030E081E090E0022E02C0880F991F0A944E
:1012E000E2F7809584238C9314C0A2E3B0E0E2E39C
:1012F000F0E08081482F8A81282F30E081E090E063
:10130000022E02C0880F991F0A94E2F78095842369
:101310008C930F900F900F900F90CF91DF910895C5
:10132000DF93CF9300D00F92CDB7DEB78983898149
:10133000282F30E03B832A838A819B81823091056C
:10134000D1F02A813B812330310534F48A819B819D
:101350008130910561F01AC02A813B81233031052B
:1013600071F08A819B818430910569F00FC0EBE3B5
:10137000F0E010820BC0E8E3F0E0108207C0E5E384
:10138000F0E0108203C0E2E3F0E010820F900F90D3
:101390000F90CF91DF910895DF93CF9300D000D0CD
:1013A000CDB7DEB789836A838981282F30E03C83FB
:1013B0002B838B819C818230910551F12B813C8163
:1013C0002330310534F48B819C818130910561F0AB
:1013D0005AC02B813C812330310571F18B819C8176
:1013E00084309105E9F14FC0ABE3B0E0EBE3F0E00E
:1013F0008081482F8A81282F30E081E090E0022E02
:1014000002C0880F991F0A94E2F784278C933BC08F
:10141000A8E3B0E0E8E3F0E08081482F8A81282F3C
:1014200030E081E090E0022E02C0880F991F0A94FC
:10143000E2F784278C9327C0A5E3B0E0E5E3F0E072
:101440008081482F8A81282F30E081E090E0022EB1
:1014500002C0880F991F0A94E2F784278C9313C067
:10146000A2E3B0E0E2E3F0E08081482F8A81282FF8
:1014700030E081E090E0022E02C0880F991F0A94AC
:10148000E2F784278C930F900F900F900F90CF91DD
:10149000DF910895DF93CF9300D00F92CDB7DEB7E1
:1014A00089838981282F30E03B832A838A819B812D
:1014B00082309105F1F02A813B812330310534F4EB
:1014C0008A819B818130910561F02AC02A813B810C
:1014D00023303105B1F08A819B8184309105C9F0B8
:1014E0001FC0ABE3B0E0EBE3F0E0808180958C932C
:1014F00017C0A8E3B0E0E8E3F0E0808180958C932A
:101500000FC0A5E3B0E0E5E3F0E0808180958C9327
:1015100007C0A2E3B0E0E2E3F0E0808180958C9325
:101520000F900F900F90CF91DF910895DF93CF939D
:1015300000D000D0CDB7DEB789836A838A818F70EF
:101540008A838981282F30E03C832B838B819C8187
:101550008230910531F12B813C812330310534F407
:101560008B819C818130910561F04AC02B813C8147
:101570002330310531F18B819C818430910589F1D3
:101580003FC0ABE3B0E0EBE3F0E08081807F8C9381
:10159000ABE3B0E0EBE3F0E090818A81892B8C93A0
:1015A0002FC0A8E3B0E0E8E3F0E08081807F8C9377
:1015B000A8E3B0E0E8E3F0E090818A81892B8C9386
:1015C0001FC0A5E3B0E0E5E3F0E08081807F8C936D
:1015D000A5E3B0E0E5E3F0E090818A81892B8C936C
:1015E0000FC0A2E3B0E0E2E3F0E08081807F8C9363
:1015F000A2E3B0E0E2E3F0E090818A81892B8C9352
:101600000F900F900F900F90CF91DF910895DF937F
:10161000CF9300D000D0CDB7DEB789836A838A81AB
:101620008295807F8A838981282F30E03C832B83B9
:101630008B819C818230910531F12B813C8123305B
:10164000310534F48B819C818130910561F04AC071
:101650002B813C812330310531F18B819C81843099
:10166000910589F13FC0ABE3B0E0EBE3F0E08081AE
:101670008F708C93ABE3B0E0EBE3F0E090818A8174
:10168000892B8C932FC0A8E3B0E0E8E3F0E08081E1
:101690008F708C93A8E3B0E0E8E3F0E090818A815A
:1016A000892B8C931FC0A5E3B0E0E5E3F0E08081D7
:1016B0008F708C93A5E3B0E0E5E3F0E090818A8140
:1016C000892B8C930FC0A2E3B0E0E2E3F0E08081CD
:1016D0008F708C93A2E3B0E0E2E3F0E090818A8126
:1016E000892B8C930F900F900F900F90CF91DF91DB
:1016F0000895DF93CF9300D000D00F92CDB7DEB71F
:1017000089836A834B838B81282F30E03D832C8330
:101710008C819D818130910531F02C813D81223079
:10172000310531F009C089816A810E941E0704C019
:1017300089816A810E940D090F900F900F900F9080
:101740000F90CF91DF9108950F931F93DF93CF9365
:10175000CDB7DEB7C754D0400FB6F894DEBF0FBE8A
:10176000CDBFFE01E95BFF4F808384E062E00E9411
:101770000D09FE01E95BFF4F8081982F92959F70C4
:1017800084E0692F0E94070B84E061E00E940D094C
:1017900084E063E00E941E07FE01ED5BFF4F80E0E6
:1017A00090E0A0E0B0E480839183A283B3838E01B4
:1017B000015C1F4FFE01ED5BFF4F608171818281F3
:1017C000938120E030E04AEF54E40E941702DC01EC
:1017D000CB01F80180839183A283B383FE01FF963E
:1017E000608171818281938120E030E040E85FE395
:1017F0000E94710388232CF481E090E09EAF8DAFAE
:1018000046C0FE01FF96608171818281938120E054
:101810003FEF4FE757E40E941103181664F5FE01ED
:10182000ED5BFF4F608171818281938120E030E028
:1018300040E251E40E941702DC01CB01BC01CD0162
:101840000E944100DC01CB019EAF8DAF0FC088EC40
:1018500090E09CAF8BAF8BAD9CAD0197F1F79CAF47
:101860008BAF8DAD9EAD01979EAF8DAF8DAD9EAD13
:10187000009769F716C0FE01FF9660817181828131
:1018800093810E944100DC01CB019EAF8DAF8DADF5
:101890009EAD9AAF89AF89AD9AAD0197F1F79AAF36
:1018A00089AF84E063E00E940D0980E090E0A0E051
:1018B000B0E48DAB9EABAFABB8AF6DA97EA98FA9DD
:1018C00098AD20E030E04AEF54E40E941702DC01BA
:1018D000CB0189AB9AABABABBCAB69A97AA98BA99D
:1018E0009CA920E030E040E85FE30E947103882378
:1018F0002CF481E090E098AB8FA73FC069A97AA94A
:101900008BA99CA920E03FEF4FE757E40E94110309
:1019100018164CF56DA97EA98FA998AD20E030E08E
:1019200040E251E40E941702DC01CB01BC01CD0171
:101930000E944100DC01CB0198AB8FA70FC088EC5F
:1019400090E09EA78DA78DA59EA50197F1F79EA774
:101950008DA78FA598A9019798AB8FA78FA598A958
:10196000009769F714C069A97AA98BA99CA90E945C
:101970004100DC01CB0198AB8FA78FA598A99CA74C
:101980008BA78BA59CA50197F1F79CA78BA784E05B
:1019900062E00E940D09FE01E95BFF4F84E0608177
:1019A0000E94070B84E061E00E940D0984E063E07F
:1019B0000E941E0780E090E0A0E0B0E48FA398A70B
:1019C000A9A7BAA76FA178A589A59AA520E030E0BC
:1019D0004AEF54E40E941702DC01CB018BA39CA3C5
:1019E000ADA3BEA36BA17CA18DA19EA120E030E0A0
:1019F00040E85FE30E94710388232CF481E090E0CB
:101A00009AA389A33FC06BA17CA18DA19EA120E0D8
:101A10003FEF4FE757E40E94110318164CF56FA1F2
:101A200078A589A59AA520E030E040E251E40E9423
:101A30001702DC01CB01BC01CD010E944100DC0199
:101A4000CB019AA389A30FC088EC90E098A38F8F55
:101A50008F8D98A10197F1F798A38F8F89A19AA1F3
:101A600001979AA389A389A19AA1009769F714C045
:101A70006BA17CA18DA19EA10E944100DC01CB0144
:101A80009AA389A389A19AA19E8F8D8F8D8D9E8DFA
:101A90000197F1F79E8F8D8F84E063E00E940D091E
:101AA00080E090E0A0E0B0E4898F9A8FAB8FBC8F8C
:101AB000698D7A8D8B8D9C8D20E030E04AEF54E467
:101AC0000E941702DC01CB018D8B9E8BAF8BB88FF0
:101AD0006D897E898F89988D20E030E040E85FE352
:101AE0000E94710388232CF481E090E09C8B8B8B07
:101AF0003FC06D897E898F89988D20E03FEF4FE749
:101B000057E40E94110318164CF5698D7A8D8B8D60
:101B10009C8D20E030E040E251E40E941702DC019D
:101B2000CB01BC01CD010E944100DC01CB019C8BAB
:101B30008B8B0FC088EC90E09A8B898B89899A896E
:101B40000197F1F79A8B898B8B899C8901979C8BE4
:101B50008B8B8B899C89009769F714C06D897E896E
:101B60008F89988D0E944100DC01CB019C8B8B8B6F
:101B70008B899C89988B8F878F8598890197F1F73E
:101B8000988B8F8780E090E0A0E8BFE38B879C87ED
:101B9000AD87BE876B857C858D859E8520E030E096
:101BA0004AEF54E40E941702DC01CB018F8398872F
:101BB000A987BA876F81788589859A8520E030E08A
:101BC00040E85FE30E94710388232CF481E090E0F9
:101BD0009E838D833FC06F81788589859A8520E0BB
:101BE0003FEF4FE757E40E94110318164CF56B8541
:101BF0007C858D859E8520E030E040E251E40E94A6
:101C00001702DC01CB01BC01CD010E944100DC01C7
:101C1000CB019E838D830FC088EC90E09C838B83E7
:101C20008B819C810197F1F79C838B838D819E81B1
:101C300001979E838D838D819E81009769F714C0E3
:101C40006F81788589859A850E944100DC01CB01EE
:101C50009E838D838D819E819A83898389819A81D8
:101C60000197F1F79A838983C95BDF4F0FB6F89428
:101C7000DEBF0FBECDBFCF91DF911F910F910895B1
:101C80000F931F93DF93CF93CDB7DEB7C455D040EA
:101C90000FB6F894DEBF0FBECDBFFE01EF5AFF4F67
:101CA00080E090E0A8E4B3E480839183A283B383CF
:101CB0008E01035B1F4FFE01EF5AFF4F6081718160
:101CC0008281938120E030E04AEF54E40E941702C1
:101CD000DC01CB01F80180839183A283B383FE01F1
:101CE000E35BFF4F608171818281938120E030E06E
:101CF00040E85FE30E947103882344F4FE01E55B42
:101D0000FF4F81E090E09183808364C0FE01E35B3C
:101D1000FF4F608171818281938120E03FEF4FE727
:101D200057E40E94110318160CF043C0FE01EF5A4D
:101D3000FF4F608171818281938120E030E040E239
:101D400051E40E941702DC01CB018E01055B1F4F9D
:101D5000BC01CD010E944100DC01CB01F80191835F
:101D600080831FC0FE01E75BFF4F88EC90E091830A
:101D70008083FE01E75BFF4F808191810197F1F73E
:101D8000FE01E75BFF4F91838083DE01A55BBF4FC0
:101D9000FE01E55BFF4F80819181019711969C9335
:101DA0008E93FE01E55BFF4F808191810097D1F614
:101DB00027C08E01055B1F4FFE01E35BFF4F608173
:101DC0007181828193810E944100DC01CB01F80185
:101DD00091838083DE01A95BBF4FFE01E55BFF4F6E
:101DE000808191818D939C93FE01E95BFF4F8081FF
:101DF00091810197F1F7FE01E95BFF4F91838083A9
:101E000084E064E041E00E94630684E065E041E034
:101E10000E94630684E066E041E00E94630684E07D
:101E200067E041E00E94630684E061E041E00E94D7
:101E3000630684E063E041E00E94630684E062E0C0
:101E400041E00E94630682E00E94A40BFE01ED5B6C
:101E5000FF4F80E090E0A0E2B1E480839183A28311
:101E6000B3838E01015C1F4FFE01ED5BFF4F60816C
:101E700071818281938120E030E04AEF54E40E9436
:101E80001702DC01CB01F80180839183A283B38325
:101E9000FE01FF96608171818281938120E030E0B4
:101EA00040E85FE30E94710388232CF481E090E016
:101EB0009EAF8DAF46C0FE01FF9660817181828129
:101EC000938120E03FEF4FE757E40E94110318167B
:101ED00064F5FE01ED5BFF4F60817181828193812A
:101EE00020E030E040E251E40E941702DC01CB0127
:101EF000BC01CD010E944100DC01CB019EAF8DAF42
:101F00000FC088EC90E09CAF8BAF8BAD9CAD019780
:101F1000F1F79CAF8BAF8DAD9EAD01979EAF8DAFAE
:101F20008DAD9EAD009769F716C0FE01FF966081EA
:101F30007181828193810E944100DC01CB019EAFBF
:101F40008DAF8DAD9EAD9AAF89AF89AD9AAD01973A
:101F5000F1F79AAF89AF88E20E94A40B80E090E08D
:101F6000A0E8BFE38DAB9EABAFABB8AF6DA97EA9C8
:101F70008FA998AD20E030E04AEF54E40E941702A8
:101F8000DC01CB0189AB9AABABABBCAB69A97AA93D
:101F90008BA99CA920E030E040E85FE30E94710338
:101FA00088232CF481E090E098AB8FA73FC069A90B
:101FB0007AA98BA99CA920E03FEF4FE757E40E9444
:101FC000110318164CF56DA97EA98FA998AD20E0D4
:101FD00030E040E251E40E941702DC01CB01BC0179
:101FE000CD010E944100DC01CB0198AB8FA70FC04F
:101FF00088EC90E09EA78DA78DA59EA50197F1F78F
:102000009EA78DA78FA598A9019798AB8FA78FA59D
:1020100098A9009769F714C069A97AA98BA99CA906
:102020000E944100DC01CB0198AB8FA78FA598A936
:102030009CA78BA78BA59CA50197F1F79CA78BA7C5
:102040008EE00E94A40B80E090E0A0E8BFE38FA3A5
:1020500098A7A9A7BAA76FA178A589A59AA520E0F6
:1020600030E04AEF54E40E941702DC01CB018BA35D
:102070009CA3ADA3BEA36BA17CA18DA19EA120E0DA
:1020800030E040E85FE30E94710388232CF481E094
:1020900090E09AA389A33FC06BA17CA18DA19EA1D2
:1020A00020E03FEF4FE757E40E94110318164CF56C
:1020B0006FA178A589A59AA520E030E040E251E41F
:1020C0000E941702DC01CB01BC01CD010E9441003E
:1020D000DC01CB019AA389A30FC088EC90E098A300
:1020E0008F8F8F8D98A10197F1F798A38F8F89A17A
:1020F0009AA101979AA389A389A19AA1009769F748
:1021000014C06BA17CA18DA19EA10E944100DC01A5
:10211000CB019AA389A389A19AA19E8F8D8F8D8DC2
:102120009E8D0197F1F79E8F8D8F81E00E94A40B09
:1021300080E090E0A0E2B1E4898F9A8FAB8FBC8FF2
:10214000698D7A8D8B8D9C8D20E030E04AEF54E4D0
:102150000E941702DC01CB018D8B9E8BAF8BB88F59
:102160006D897E898F89988D20E030E040E85FE3BB
:102170000E94710388232CF481E090E09C8B8B8B70
:102180003FC06D897E898F89988D20E03FEF4FE7B2
:1021900057E40E94110318164CF5698D7A8D8B8DCA
:1021A0009C8D20E030E040E251E40E941702DC0107
:1021B000CB01BC01CD010E944100DC01CB019C8B15
:1021C0008B8B0FC088EC90E09A8B898B89899A89D8
:1021D0000197F1F79A8B898B8B899C8901979C8B4E
:1021E0008B8B8B899C89009769F714C06D897E89D8
:1021F0008F89988D0E944100DC01CB019C8B8B8BD9
:102200008B899C89988B8F878F8598890197F1F7A7
:10221000988B8F8786E00E94A40B80E090E0A0E876
:10222000BFE38B879C87AD87BE876B857C858D855B
:102230009E8520E030E04AEF54E40E941702DC0162
:10224000CB018F839887A987BA876F817885898525
:102250009A8520E030E040E85FE30E947103882324
:102260002CF481E090E09E838D833FC06F81788560
:1022700089859A8520E03FEF4FE757E40E941103DC
:1022800018164CF56B857C858D859E8520E030E0A9
:1022900040E251E40E941702DC01CB01BC01CD01F8
:1022A0000E944100DC01CB019E838D830FC088EC2E
:1022B00090E09C838B838B819C810197F1F79C83B9
:1022C0008B838D819E8101979E838D838D819E81DD
:1022D000009769F714C06F81788589859A850E9477
:1022E0004100DC01CB019E838D838D819E819A8389
:1022F000898389819A810197F1F79A838983CC5ADE
:10230000DF4F0FB6F894DEBF0FBECDBFCF91DF9188
:102310001F910F9108950F931F93DF93CF93CDB724
:10232000DEB7C754D0400FB6F894DEBF0FBECDBFA6
:10233000FE01E95BFF4F808384E062E00E940D09AB
:10234000FE01E95BFF4F8081982F92959F7084E09A
:10235000692F0E94070B84E061E00E941E0784E061
:1023600063E00E941E07FE01ED5BFF4F80E090E0FE
:10237000A0E0B0E480839183A283B3838E01015CEB
:102380001F4FFE01ED5BFF4F608171818281938160
:1023900020E030E04AEF54E40E941702DC01CB0158
:1023A000F80180839183A283B383FE01FF9660814D
:1023B00071818281938120E030E040E85FE30E94F8
:1023C000710388232CF481E090E09EAF8DAF46C06E
:1023D000FE01FF96608171818281938120E03FEF51
:1023E0004FE757E40E941103181664F5FE01ED5BF8
:1023F000FF4F608171818281938120E030E040E273
:1024000051E40E941702DC01CB01BC01CD010E9406
:102410004100DC01CB019EAF8DAF0FC088EC90E096
:102420009CAF8BAF8BAD9CAD0197F1F79CAF8BAFA1
:102430008DAD9EAD01979EAF8DAF8DAD9EAD0097DA
:1024400069F716C0FE01FF966081718182819381D8
:102450000E944100DC01CB019EAF8DAF8DAD9EADE2
:102460009AAF89AF89AD9AAD0197F1F79AAF89AF6D
:1024700084E063E00E940D0980E090E0A0E0B0E419
:102480008DAB9EABAFABB8AF6DA97EA98FA998AD50
:1024900020E030E04AEF54E40E941702DC01CB0157
:1024A00089AB9AABABABBCAB69A97AA98BA99CA948
:1024B00020E030E040E85FE30E94710388232CF4C1
:1024C00081E090E098AB8FA73FC069A97AA98BA95A
:1024D0009CA920E03FEF4FE757E40E941103181634
:1024E0004CF56DA97EA98FA998AD20E030E040E2BF
:1024F00051E40E941702DC01CB01BC01CD010E9416
:102500004100DC01CB0198AB8FA70FC088EC90E0B5
:102510009EA78DA78DA59EA50197F1F79EA78DA7D4
:102520008FA598A9019798AB8FA78FA598A9009719
:1025300069F714C069A97AA98BA99CA90E944100D6
:10254000DC01CB0198AB8FA78FA598A99CA78BA77F
:102550008BA59CA50197F1F79CA78BA784E062E06F
:102560000E940D09FE01E95BFF4F84E060810E943B
:10257000070B84E061E00E941E0784E063E00E9494
:102580001E0780E090E0A0E0B0E48FA398A7A9A781
:10259000BAA76FA178A589A59AA520E030E04AEFF7
:1025A00054E40E941702DC01CB018BA39CA3ADA3D2
:1025B000BEA36BA17CA18DA19EA120E030E040E8EC
:1025C0005FE30E94710388232CF481E090E09AA3DA
:1025D00089A33FC06BA17CA18DA19EA120E03FEF0C
:1025E0004FE757E40E94110318164CF56FA178A528
:1025F00089A59AA520E030E040E251E40E9417024C
:10260000DC01CB01BC01CD010E944100DC01CB010A
:102610009AA389A30FC088EC90E098A38F8F8F8D29
:1026200098A10197F1F798A38F8F89A19AA101979B
:102630009AA389A389A19AA1009769F714C06BA1F5
:102640007CA18DA19EA10E944100DC01CB019AA337
:1026500089A389A19AA19E8F8D8F8D8D9E8D0197C3
:10266000F1F79E8F8D8F84E063E00E940D0980E07A
:1026700090E0A0E0B0E4898F9A8FAB8FBC8F698D1A
:102680007A8D8B8D9C8D20E030E04AEF54E40E94DF
:102690001702DC01CB018D8B9E8BAF8BB88F6D89C0
:1026A0007E898F89988D20E030E040E85FE30E94CA
:1026B000710388232CF481E090E09C8B8B8B3FC0CE
:1026C0006D897E898F89988D20E03FEF4FE757E431
:1026D0000E94110318164CF5698D7A8D8B8D9C8D97
:1026E00020E030E040E251E40E941702DC01CB011F
:1026F000BC01CD010E944100DC01CB019C8B8B8B86
:102700000FC088EC90E09A8B898B89899A89019710
:10271000F1F79A8B898B8B899C8901979C8B8B8B8A
:102720008B899C89009769F714C06D897E898F8990
:10273000988D0E944100DC01CB019C8B8B8B8B8997
:102740009C89988B8F878F8598890197F1F7988B53
:102750008F8780E090E0A0E8BFE38B879C87AD8700
:10276000BE876B857C858D859E8520E030E04AEFB5
:1027700054E40E941702DC01CB018F839887A9875C
:10278000BA876F81788589859A8520E030E040E8B6
:102790005FE30E94710388232CF481E090E09E8324
:1027A0008D833FC06F81788589859A8520E03FEFD2
:1027B0004FE757E40E94110318164CF56B857C8592
:1027C0008D859E8520E030E040E251E40E941702B2
:1027D000DC01CB01BC01CD010E944100DC01CB0139
:1027E0009E838D830FC088EC90E09C838B838B81CC
:1027F0009C810197F1F79C838B838D819E8101974A
:102800009E838D838D819E81009769F714C06F81AF
:10281000788589859A850E944100DC01CB019E83E1
:102820008D838D819E819A83898389819A81019785
:10283000F1F79A838983C95BDF4F0FB6F894DEBF47
:102840000FBECDBFCF91DF911F910F910895DF9300
:10285000CF9300D00F92CDB7DEB79B838A831982C6
:102860000EC08981282F30E08A819B81FC01E20F14
:10287000F31F80810E948B1189818F5F89838981F9
:10288000282F30E08A819B81FC01E20FF31F8081B9
:10289000882339F70F900F900F90CF91DF91089513
:1028A000DF93CF93CDB7DEB7A4970FB6F894DEBF12
:1028B0000FBECDBF69A37AA38BA39CA389A19AA1C4
:1028C000ABA1BCA1813026E3920725E6A20724EC48
:1028D000B20798F489A19AA1ABA1BCA180302AECDF
:1028E00092072AE9A2072BE3B20738F00E944815A5
:1028F00080E690E00E9427141AC080E2FE01319623
:10290000DF01282F1D922A95E9F789A19AA1ABA191
:10291000BCA19E012F5F3F4FBC01CD01A9012AE060
:1029200030E00E94B218CE0101960E942714A496AE
:102930000FB6F894DEBF0FBECDBFCF91DF910895E3
:10294000EF92FF920F931F93DF93CF93CDB7DEB734
:1029500028970FB6F894DEBF0FBECDBF6C837D8382
:102960008E839F83488781E090E09B838A831982CE
:102970006C817D818E819F810E944100DC01CB01B1
:10298000BC01CD010E9450148CE20E948B1119826F
:1029900011C08A819B819C01220F331FC901880FBE
:1029A000991F880F991F820F931F9B838A838981A8
:1029B0008F5F898399818885981758F36C817D8111
:1029C0008E819F810E944100DC01CB01BC01CD01C1
:1029D0000E94F5039B01AC016C817D818E819F81FA
:1029E0000E94B901DC01CB017C018D018A819B81B0
:1029F000CC01A0E0B0E0BC01CD010E94F5039B0139
:102A0000AC01C801B7010E941702DC01CB01BC0177
:102A1000CD010E944100DC01CB01BC01CD010E942F
:102A2000501428960FB6F894DEBF0FBECDBFCF91DD
:102A3000DF911F910F91FF90EF900895DF93CF9357
:102A400000D00F92CDB7DEB78A836B838A8188234B
:102A5000C9F08A818330B0F48B81882399F08B810F
:102A6000813180F48A81813021F48B81815889837E
:102A700006C08A81823019F48B81815489838981CF
:102A80000E94A40B0F900F900F90CF91DF910895AB
:102A9000DF93CF93CDB7DEB781E00E94A40BCF9137
:102AA000DF910895DF93CF93CDB7DEB78CE10E941D
:102AB000A40BCF91DF910895DF93CF93CDB7DEB70D
:102AC00088E10E94A40BCF91DF910895DF93CF930B
:102AD00000D000D000D0CDB7DEB79B838A836C8353
:102AE0004D832E838C81882F90E00896880F991F44
:102AF000880F991F880F991F0E94A40B19820EC07E
:102B00008981282F30E08A819B81FC01E20FF31F2D
:102B100080810E948B1189818F5F898389818830B0
:102B200078F38D816E810E941E158C810E948B111D
:102B300026960FB6F894DEBF0FBECDBFCF91DF91C2
:102B40000895DF93CF93CDB7DEB781E06FE00E94A9
:102B5000890881E06FE00E94890881E06FEF0E94A0
:102B60004708CF91DF910895DF93CF93CDB7DEB7BC
:102B700062970FB6F894DEBF0FBECDBF8FEF8F8781
:102B80001A8AABC081E06A890E940D0984E0898BB2
:102B900099C081E069890E949C07888B8889882375
:102BA00009F08DC08A89482F50E08989882F90E0EC
:102BB0009C0124503040CA01880F991F880F991F2B
:102BC000820F931FFC01ED55FE4F80818F8781E0BE
:102BD00069890E949C078823D1F380E090E0A0EAF5
:102BE000B1E48B879C87AD87BE876B857C858D859F
:102BF0009E8520E030E04AEF54E40E941702DC0199
:102C0000CB018F839887A987BA876F81788589855B
:102C10009A8520E030E040E85FE30E94710388235A
:102C20002CF481E090E09E838D833FC06F81788596
:102C300089859A8520E03FEF4FE757E40E94110312
:102C400018164CF56B857C858D859E8520E030E0DF
:102C500040E251E40E941702DC01CB01BC01CD012E
:102C60000E944100DC01CB019E838D830FC088EC64
:102C700090E09C838B838B819C810197F1F79C83EF
:102C80008B838D819E8101979E838D838D819E8113
:102C9000009769F714C06F81788589859A850E94AD
:102CA0004100DC01CB019E838D838D819E819A83BF
:102CB000898389819A810197F1F79A838983898928
:102CC0008F5F898B8989883008F463CF81E06A89B6
:102CD0000E941E078A898F5F8A8B8A89843008F454
:102CE00051CF8F8562960FB6F894DEBF0FBECDBF71
:102CF000CF91DF910895DF93CF93CDB7DEB7A7973C
:102D00000FB6F894DEBF0FBECDBF8FEF8FA31BA20F
:102D10001CA21DA21EA282ED94E0A0E0B0E08F8F65
:102D200098A3A9A3BAA381E08E8F1D8E0E94400EA6
:102D30000E94A1158EE690E00E94271482E061E0D7
:102D40000E941E150E94B4158FA38FA18033B8F185
:102D50008FA18A33A0F58D8D8A3088F58BA19CA137
:102D6000ADA1BEA12AE030E040E050E0BC01CD01C1
:102D70000E943A18DC01CB018BA39CA3ADA3BEA398
:102D80008FA1882F90E0C0979C01442737FD409584
:102D9000542F8BA19CA1ADA1BEA1820F931FA41F94
:102DA000B51F8BA39CA3ADA3BEA38FE790E00E94A9
:102DB00027148E8D8F5F8E8F8D8D8F5F8D8F8FA15E
:102DC0008D3221F58E8D81508E8F8D8D81508D8F1E
:102DD0008BA19CA1ADA1BEA12AE030E040E050E073
:102DE000BC01CD010E945918DA01C9018BA39CA333
:102DF000ADA3BEA382E06E8D0E941E1581E890E017
:102E00000E94271482E06E8D0E941E158FA18D33C3
:102E100009F092C02BA13CA14DA15EA18F8D98A17C
:102E2000A9A1BAA1281739074A075B0709F084C08E
:102E30000E94481583E890E00E9427148FEF8FA32B
:102E40001BA21CA21DA21EA281E08E8F1D8E80E0FF
:102E500090E0AAE7B4E4898F9A8FAB8FBC8F698D1D
:102E60007A8D8B8D9C8D20E030E04AEF54E40E94F7
:102E70001702DC01CB018D8B9E8BAF8BB88F6D89D8
:102E80007E898F89988D20E030E040E85FE30E94E2
:102E9000710388232CF481E090E09C8B8B8B3FC0E6
:102EA0006D897E898F89988D20E03FEF4FE757E449
:102EB0000E94110318164CF5698D7A8D8B8D9C8DAF
:102EC00020E030E040E251E40E941702DC01CB0137
:102ED000BC01CD010E944100DC01CB019C8B8B8B9E
:102EE0000FC088EC90E09A8B898B89899A89019729
:102EF000F1F79A8B898B8B899C8901979C8B8B8BA3
:102F00008B899C89009769F714C06D897E898F89A8
:102F1000988D0E944100DC01CB019C8B8B8B8B89AF
:102F20009C89988B8F878F8598890197F1F7988B6B
:102F30008F870E94481506CF8FA18D3309F002CFED
:102F40002BA13CA14DA15EA18F8D98A1A9A1BAA1F1
:102F5000281739074A075B0709F4F4CE0E94481581
:102F600080E990E00E9427148FEF8FA31BA21CA280
:102F70001DA21EA281E08E8F1D8E80E090E0AAE748
:102F8000B4E48B879C87AD87BE876B857C858D85F8
:102F90009E8520E030E04AEF54E40E941702DC01F5
:102FA000CB018F839887A987BA876F8178858985B8
:102FB0009A8520E030E040E85FE30E9471038823B7
:102FC0002CF481E090E09E838D833FC06F817885F3
:102FD00089859A8520E03FEF4FE757E40E9411036F
:102FE00018164CF56B857C858D859E8520E030E03C
:102FF00040E251E40E941702DC01CB01BC01CD018B
:103000000E944100DC01CB019E838D830FC088ECC0
:1030100090E09C838B838B819C810197F1F79C834B
:103020008B838D819E8101979E838D838D819E816F
:10303000009769F714C06F81788589859A850E9409
:103040004100DC01CB019E838D838D819E819A831B
:10305000898389819A810197F1F79A8389830E94F4
:1030600048158EE690E00E94271482E061E00E94FD
:103070001E1568CE629FD001739FF001829FE00D04
:10308000F11D649FE00DF11D929FF00D839FF00DE7
:10309000749FF00D659FF00D9927729FB00DE11D93
:1030A000F91F639FB00DE11DF91FBD01CF01112470
:1030B0000895A1E21A2EAA1BBB1BFD010DC0AA1F79
:1030C000BB1FEE1FFF1FA217B307E407F50720F091
:1030D000A21BB30BE40BF50B661F771F881F991F0C
:1030E0001A9469F760957095809590959B01AC0155
:1030F000BD01CF0108952F923F924F925F926F9240
:103100007F928F929F92AF92BF92CF92DF92EF9277
:10311000FF920F931F93CF93DF93CDB7DEB7CA1BF8
:10312000DB0B0FB6F894DEBF0FBECDBF09942A8823
:10313000398848885F846E847D848C849B84AA84CB
:10314000B984C884DF80EE80FD800C811B81AA8158
:10315000B981CE0FD11D0FB6F894DEBF0FBECDBF23
:10316000ED010895FA01CF93FF93EF93223044F1DC
:10317000253234F5C22FE894CA3049F497FB3EF467
:1031800090958095709561957F4F8F4F9F4F2C2F15
:10319000332744275527FF93EF930E945918EF9147
:1031A000FF91605D6A330CF0695D6193B901CA01FA
:1031B000605070408040904051F716F4CDE2C193CA
:1031C00010828F919F91CF910C94E618DC01FC0145
:1031D000672F71917723E1F7329704C07C916D934B
:1031E00070836291AE17BF07C8F30895F894FFCFBC
:1031F0004F766572666C6F77202121212100456E24
:1032000074657220596F757220706173733A002A69
:10321000002000436F7272656374207061737300E5
:1032200057726F6E672070617373000000000000BA
:103230000000000001020203030303040404040469
:103240000404040505050505050505050505050531
:103250000505050606060606060606060606060611
:1032600006060606060606060606060606060606FE
:1032700006060607070707070707070707070707E1
:1032800007070707070707070707070707070707CE
:1032900007070707070707070707070707070707BE
:1032A00007070707070707070707070707070707AE
:1032B0000707070808080808080808080808080891
:1032C000080808080808080808080808080808087E
:1032D000080808080808080808080808080808086E
:1032E000080808080808080808080808080808085E
:1032F000080808080808080808080808080808084E
:10330000080808080808080808080808080808083D
:10331000080808080808080808080808080808082D
:10332000080808080808080808080808080808081D
:1033300008080837343144383532303936333D2BBC
:043340002D2A2F0003
:00000001FF
